:100000000040002029070000690700006B0700007E
:1000100000000000000000000000000000000000E0
:100020000000000000000000000000006D0700005C
:1000300000000000000000006F07000071070000D2
:1000400073070000730700007307000073070000C8
:100050007307000000000000730700007307000032
:1000600073070000730700007307000073070000A8
:100070007307000073070000730700007307000098
:100080007307000073070000730700007307000088
:100090007307000073070000730700007307000078
:1000A000730700007307000000000000000000005C
:1000B0000000000000000000000000000000000040
:1000C000054B0648033310B51B1A062B03D9044B06
:1000D000002B00D0984710BDD8080020D808002079
:1000E000000000000648074910B5091A8910CB0F17
:1000F0005918491003D0044B002B00D0984710BD6D
:10010000D8080020D80800200000000010B5074CD7
:100110002378002B09D1FFF7D3FF054B002B02D02A
:10012000044800E000BF0123237010BDD808002060
:1001300000000000A4D60000094B10B5002B03D02E
:100140000849094800E000BF08480368002B02D1B5
:10015000FFF7C8FF10BD064B002BF9D09847F7E713
:1001600000000000DC080020A4D60000D408002015
:1001700000000000144B002B00D1124B9D46402282
:1001800092029A1A924600218B460F461148124A53
:10019000121A00F065FB0D4B002B00D098470C4B5A
:1001A000002B00D098470020002104000D000B48D0
:1001B00000F0E0FA00F010FB2000290000F0B6F893
:1001C00000F0E0FA000008000040002000000000FD
:1001D00000000000D808002030090020A50700001A
:1001E00080B586B000AF78607B68002B2ED00423EA
:1001F0007B610FE0A023DB05A022D2052C495258D9
:1002000001207969884001000A4329495A507B69D5
:1002100001337B617B690C2BECDD0D233B6110E02E
:10022000A023DB05A022D2052149525801203969BB
:1002300088400100C9430A401D495A503B690133B7
:100240003B613B690F2BEBDD00232DE00423FB60BA
:1002500010E0A023DB05A022D20515495258012049
:10026000F96888400100C9430A4011495A50FB68A7
:100270000133FB60FB680C2BEBDD0D23BB600FE053
:10028000A023DB05A022D205094952580120B968F4
:10029000884001000A4306495A50BB680133BB60DD
:1002A000BB680F2BECDD01231800BD4606B080BDF6
:1002B0000405000080B586B000AFF860B9607A60D0
:1002C000BB687B6100233B610AE07B691B781800F7
:1002D00000F010F97B6901337B613B6901333B61BD
:1002E0003A697B689A42F0D37B681800BD4606B035
:1002F00080BD90B587B000AFF860B9607A60BB6828
:100300007B611323FC1800F01BF9030023701323F7
:10031000FB181B78002BF4D07B691322BA181278D3
:100320001A7001231800BD4607B090BD80B586B095
:1003300000AF00F095F800237B6104233B6115E0DA
:10034000A023DA0501213B6999400B001900A32382
:10035000DB00D150A023DB0501213A6991400A005E
:100360001100364A99503B6901333B613B690F2BC1
:10037000E6DDA023DB05324A00219950A023DA05EF
:10038000ED23DB000021D1500023FB60A023DA0520
:10039000A223DB00D2588023DB04134002D1422089
:1003A00000F0A8F8A023DA05A223DB00D2588023AE
:1003B0009B02134029D1234B180000F031FA00238F
:1003C0007B6000233B603A1D1F4B1100180000F0BA
:1003D00091FA7A681D4B1100180000F021FA3A00DA
:1003E000194B1100180000F085FA3A68184B1100FB
:1003F000180000F015FA7B683A685343BB60BA688E
:10040000144B1100180000F00BFA00F099F8031ECD
:100410000BD07B691800FFF7E3FE03007B610E4BF6
:1004200010220D21180000F0FBF90C4BFB60FB685B
:10043000013BFB60FB68002BF9D1A7E70C0500002E
:1004400044070000D8C70000F0C70000F4C7000050
:10045000FCC7000004C800001CC8000010270000F2
:1004600080B500AFA023DA05A023D905A323DB00C4
:10047000CB581A491940A323DB00D150A023DA0539
:10048000A023D905A323DB00CB58802149041943BD
:10049000A323DB00D150124A124B1821D150104A2D
:1004A000114B1921D1500E4A104B1149D1500C4912
:1004B000A223DB0001225242CA500949A123DB00DA
:1004C00001225242CA50064AA023DB000421D15027
:1004D000034B01221A60C046BD4680BDFFFFFFFDF1
:1004E000002000400C050000140500002405000059
:1004F0000050270080B582B000AF0200FB1D1A70CB
:100500000D4B01229A600C4A8E235B000021D150D2
:100510000949FB1D1B78094A8B50C046064A8E23A9
:100520005B00D358002BF9D0034B0122DA60C046A0
:10053000BD4602B080BDC046002000401C05000042
:1005400080B582B000AF0D4B01221A600B4AA32385
:10055000DB00D258FB1D1A70FB1D1B78002B07D047
:10056000064A84235B000021D150FB1D1B7800E06C
:1005700000231800BD4602B080BDC04600200040E8
:1005800080B500AF00F036F8031E06D0134B144AB6
:100590001A60144B802212021A6000F06BF8031EDE
:1005A00005D08023DA05C123DB000121D15000F002
:1005B00087F8031E0ED00C4B1B68012B07D00A4B8B
:1005C0000A4A1A60C046084B1B68012BFBD1084B36
:1005D000C0221A60C046BD4680BDC046040500402A
:1005E000DFFF07C0186C004000EC06407593000068
:1005F00014EC064080B500AF1A4B1B68FF22134075
:10060000012B2AD1184B1B680F22134025D1174B01
:100610001B68F022134006D1154B1B68F0221340D3
:1006200001D101231AE0114B1B68F0221340102B5B
:1006300006D10F4B1B68F022134001D101230DE0BE
:100640000A4B1B68F0221340302B06D1084B1B6865
:10065000F022134001D1012300E000231800BD4621
:1006600080BDC046E00F00F0E40F00F0E80F00F09E
:10067000EC0F00F080B500AF0D4B1B68FF2213405C
:10068000012B11D10B4B1B680F2213400CD10A4BCD
:100690001B68F0221340402B06D1084B1B68F02248
:1006A000134001D1012300E000231800BD4680BDA6
:1006B000E00F00F0E40F00F0E80F00F0EC0F00F0A6
:1006C00080B500AF144B1B68FF221340012B1ED1D5
:1006D000124B1B680F22134019D1114B1B68F022DB
:1006E0001340A02B06D10F4B1B68F022134001D101
:1006F00001230DE00A4B1B68F0221340D02B06D1DA
:10070000084B1B68F022134001D1012300E00023B5
:100710001800BD4680BDC046E00F00F0E40F00F0B9
:10072000E80F00F0EC0F00F003210A4802680A43CA
:100730000260094802680A4302600849084A094BF6
:100740009B1A03DD043BC858D050FBDCFFF718FFB1
:10075000FFF710FD2405004054050040B0D600000E
:1007600000000020D8080020FEE7FEE7FEE7FEE7D5
:10077000FEE7FEE710B5010000230022002001F093
:100780004FFF10BD10B50021040001F0B3FF044B72
:100790001868C36B002B00D0984720000CF00EF8AF
:1007A00050C8000070B5094B094CE41AA41009D0D8
:1007B000084AA518AD00ED182B68013C9847043D88
:1007C000002CF9D10CF002F870BDC046D008002012
:1007D000D4080020FFFFFF3F70B50D4E0D4D0024E3
:1007E000AD1BAD1005D0A300F35801349847A542C6
:1007F000F9D10BF0E5FF084E084D0024AD1BAD10FC
:1008000005D0A300F35801349847A542F9D170BD33
:10081000C8080020C8080020C8080020D008002010
:100820000FB400B5064983B004AB086804CB8168F7
:10083000019300F0CBF803B008BC04B01847C046E1
:10084000000000200EB400B582B003AB04CB816879
:10085000019300F0BBF802B008BC03B01847C046D3
:10086000F0B5830743D0541E002A3FD0CEB2020019
:10087000032502E01A00013C38D3531C16702B42AA
:10088000F8D1032C2AD9FF220A40150215432A0465
:1008900015430F2C14D927001A00103F3E090136CA
:1008A00036019E19156055609560D56010329642EC
:1008B000F8D10F2297431037DB191440032C0DD9C0
:1008C0001A00271FBE080136B6009E1920C2B24288
:1008D000FCD1032297430437DB191440002C05D0C8
:1008E000C9B21C19197001339C42FBD1F0BD140030
:1008F0000300C6E70FB400B5064983B004AB08682F
:1009000004CB4168019301F00DFE03B008BC04B0B4
:100910001847C046000000200EB400B582B003ABFB
:1009200004CB4168019301F0FDFD02B008BC03B0A7
:100930001847C046F8B54E464546DE4657464B6E0C
:10094000E0B580460E0091469B0431D513689A4667
:100950009368002B2AD05246526800259346970888
:100960005246146804D116E001350434AF4210D069
:1009700032002168404602F079F9431CF4D14A461E
:100980000023936053603CBC90469946A246AB4618
:10099000F8BD4B469B685A4603218A439B1A4A4638
:1009A000936008229446E244002BD4D10020E6E76D
:1009B00002F096FBE3E7C046936810B5002B02D027
:1009C000FFF7B8FF10BD53600020FBE7F0B54546C8
:1009D000DE4657464E46E0B5AFB00190884614005B
:1009E0001D000993002804D0836B0093002B00D1D5
:1009F000EBE1434680220C21595E92018BB21342F7
:100A000009D10A43434641469A81496EC24B0B4085
:100A100041464B6693B21A0700D4B3E142461269CD
:100A2000002A00D1AEE11A2213400A2B00D1B7E10F
:100A30001EAB9A461193002356462500C3461393D6
:100A400012930C9304932B782C00002B1BD0252B96
:100A500002D118E0252B03D001342378002BF9D1E3
:100A6000671B10D0139B3560FA18129B77600093B8
:100A70000133139212930836072B26DC049B9C4605
:100A8000BC44634604932378002B01D100F02FFD72
:100A900000230EAAD3710122524202920022089230
:100AA00020329446203291464032651C6378002003
:100AB00000270024904601351A00203A582A00D910
:100AC000D0E2964992008A589746002A01D000F059
:100AD00046FC12925646D1E710231C43A30601D5CB
:100AE00000F08EFCE30600D5CBE2630600D4C8E23A
:100AF000099B1A8806920022043307920993013257
:100B0000069913E010231C43A30601D500F08DFCC9
:100B1000E30600D5B8E2630600D4B5E2099B1A8863
:100B200006920022043306990792099300239846FF
:100B30000EA8C37102980300013300D112E2802392
:100B400027009F430397002900D00FE2002800D020
:100B500074E3002A01D000F0EBFB01202040059057
:100B6000574607D02723302114AAD1540EAB3F2774
:100B70009C466744029B059900938B4200DA0091E2
:100B800043465A1E9341009A94469C446346009300
:100B90000223039A1A400A9202D0009B0233009368
:100BA0008423039A1A400B9200D085E2089B009A96
:100BB0009C1A002C00DC7FE21398102C01DC00F062
:100BC000C5FC574B12999846102399464346A846B0
:100BD0001D0005E08A1C19000836103C102C11DDA0
:100BE0004B46103073604B1C356013901293072BEB
:100BF000F0DD002800D052E2103C002101225646D0
:100C0000102CEDDC2B0045469846434620183360F7
:100C1000746013901292072A00DDEAE20EABDB79D2
:100C20000836511C002B00D04EE20A9B002B00D14D
:100C30005FE210AB336002230230736013901291B5
:100C4000072900DCF6E2002800D0B7E30B9B012166
:100C500000225646802B00D04FE2089B009C1C1BB4
:100C6000002C00DC49E2102C01DC00F088FC2C4B4D
:100C700098461023994605E0911C1A000836103C4E
:100C8000102C12DD274B103033604B467360531C21
:100C900013901293072BEFDD002800D09DE2103C4B
:100CA000012100225646102CECDC8C4643461033C2
:100CB000336063460019746013901293072B00DDB4
:100CC00089E3591C059C029B083662461C1B002CBC
:100CD00000DD18E2059B37609C466044736013900A
:100CE0001291072900DC5DE2002800D025E3039B78
:100CF00012905B073BD5089B009A9F1A5346002F22
:100D000000DCA7E2102F01DC00F032FC044A12994B
:100D1000904610260EE0C046FFDFFFFF58C80000D7
:100D2000BCC90000CCC900008C1C11000833103F66
:100D3000102F11DDC84A10301A604A1C5E601390F3
:100D40001292072AF0DD002800D014E2103F01249F
:100D500000215346102FEDDC4246C01984C3139086
:100D60001294072C00DC28E2002800D0B1E3089B95
:100D700000998B4200DA72E2049A94469C446346DE
:100D8000049326E24146019801F0E0FB002800D0E0
:100D900079E243461A229B8913400A2B00D047E68A
:100DA00043460E229B5E002B00DA41E62B00220018
:100DB0004146019800F022FC049004982FB03CBCFE
:100DC00090469946A246AB46F0BD01F0DBFE10E628
:100DD000089B09925B42089304231C432B786AE624
:100DE0002B78691C2A2B00D1DAE31A000025303A4F
:100DF00002950D00092A00D95EE600940024A300A4
:100E00001C190B786400A4181A004D1C303A2900F4
:100E1000092AF4D90294009C4EE6002800D0CAE3C7
:100E2000A30600D575E3E30600D530E1630600D4E0
:100E30002DE16946099B098A1A68043300921180E2
:100E4000099300E6099B1A1D1F68002391460EAA0C
:100E5000D371029B002F00D17FE35A1C00D163E3C2
:100E60001A000021380002F015FF002800D18BE3A2
:100E7000C31B05930EABDB79039498464B4609934D
:100E80000023029376E663461C432B7813E6002882
:100E900000D0A0E3714A0C92A20600D5DEE2E20681
:100EA00000D566E2620600D463E2099A11880691D1
:100EB0000021043207910992E20700D447E2069824
:100EC000079902000A4311000222002900D12DE6F1
:100ED000302710A807704370144327E64B461C4385
:100EE0002B78E8E543461C432B78E4E50022303BB1
:100EF0000892009429001A000024A3001C190B7802
:100F0000640014191A000135303A2900092AF4D96D
:100F10000894009CD0E5002800D059E310231C431E
:100F2000099AA30600D5A7E2E30600D524E26306EA
:100F300000D421E20021535E06930432DB170793AD
:100F40000992002B00DAA4E2069807990EABDB7930
:100F500001229846030002980B4319000300013355
:100F600000D0ECE5002900D169E10394012A00D109
:100F7000BBE1022A00D08FE1069A079B57460F205B
:100F8000B146AC460C9D01001140695C1E07140976
:100F9000013F2643397019090B0031003200194313
:100FA000F1D165464E46069207935346DB1B0593E7
:100FB000E0E5002800D008E3294A0C926CE7099A82
:100FC00014AF13680EA900936B461B783B70002387
:100FD000CB7113000433099301230093059300237D
:100FE00003940293D4E500289AD00EABDF7197E703
:100FF0002B78002F00D05EE5012020375BE5012330
:101000001C432B7857E5099B1A1D1B680893002B7E
:1010100000DADDE62B7809924DE52B7801202B27AD
:1010200049E5099930220B680693002307930233A0
:101030001C4310AB1A7048325A700B0004330993EA
:10104000064B763A0C93069970E52B786C2B00D101
:1010500059E2102214432EE5BCC90000F0C900007B
:10106000DCC90000002800D0A8E2002B00D13EE23D
:1010700014AF3B7000230EAAD37101330093059384
:10108000ADE7099B1A6835E5099B1A6848E5099A96
:10109000049913681960130004330993D3E411AA67
:1010A00059460198FFF746FC002800D0E5E0129968
:1010B00013984A1C564690E5129A1398511C0EAB91
:1010C000DB79002B00D1B0E50EAB07333360012391
:1010D0000130736013901291072900DC9AE0002818
:1010E00000D05EE10A9B002B00D09BE00022012192
:1010F00056460B9B802B00D1AFE5029B059C1C1B29
:10110000002C00DCE6E5D34B9846102C1ADD1023AA
:10111000994605E0911C1A000836103C102C11DD90
:10112000CD4B103033604B467360531C13901293B9
:10113000072BEFDD002811D1103C0121002256467B
:10114000102CEDDC434600191033336074601390AB
:10115000129107291BDC08360131BBE511AA59465B
:101160000198FFF7E7FB002800D086E0129A139859
:10117000511C5646D1E711AA59460198FFF7DAFBF0
:1011800000287AD1129913984C1C5346CFE50028B9
:1011900000D027E1534605981F605860012356464A
:1011A0001390129333000833039A520705D5089A17
:1011B0000099571A002F00DDA4E5089B00998B4287
:1011C00000DA0B00049A94469C446346049300287A
:1011D0004CD100235646129335E411AA5946019882
:1011E000FFF7A8FB002848D1129A1398511C5646C5
:1011F00045E5002800D05FE10EABDB79002B0DD078
:1012000053460EAA07321A600123524601210120DB
:10121000564653600A000836013106E50A9B002B4A
:1012200000D160E1524610AB13600223012102207D
:10123000564653600A00083601315AE7039C012ADA
:1012400000D1A0E0022A22D10394002300240693B7
:10125000079491E6089B1100934200DB8CE5049A09
:101260000B0094469C4463460493B2E711AA594686
:101270000198FFF75FFB0028ABD0D84643469B8917
:101280005B0600D499E501235B42049395E5039442
:101290000023002406930794069807990723B14674
:1012A0009C460095564600E03E0063464A070340D0
:1012B000C508CC082A43771E303310003B7021004C
:1012C0002243F1D10690079103993200009D4E46CA
:1012D000C90700D469E6302B00D166E63023971E9B
:1012E0003B705346DB1B059344E4079B002B46D021
:1012F0005746A946069C079D200029000A22002384
:1013000009F0AAFA013F30323A7000232000290088
:101310000A2209F0A1FA030004000D000B43EBD1EF
:101320005346DB1B0694079505934D46FFF722FCB9
:10133000002357460593FFF71DFC11AA5946019853
:10134000FFF7F8FA002898D1139853462CE706982F
:10135000079903000B4302221900FFF7E7FB11AACC
:1013600059460198FFF7E6FA002886D15646FFF75E
:1013700085FB099A11689AE513680093DCE5069BE2
:10138000092BB5D8039C2722069B14A930338B5414
:10139000012305930EAB3F279C4603946744FFF758
:1013A000E9FB11AA59460198FFF7C4FA002800D0BA
:1013B00063E7129A1398511C564636E411AA59460F
:1013C0000198FFF7B7FA002800D056E7129A139851
:1013D000511C56468DE6002800D0AAE001210022CB
:1013E00056468AE611AA59460198FFF7A3FA002843
:1013F00000D042E7129B13980293591C564669E4A9
:101400000722099B07339343013294469C4462466A
:1014100009921A685B681000190003000B430690DC
:10142000079101221900FFF781FB0722099B07336F
:101430009343013294469C44624609921A685B6861
:101440001000190003000B430690079100221900B9
:10145000FFF76CFBBCC90000CCC900000721099A4A
:1014600007328A4301318C469444614609911168E0
:101470005268069107921FE5072307329A4301330A
:101480009C469444634609935368126807930692F6
:1014900057E506980799002342428B411900100036
:1014A0002D230EAAD371984603000B430690079193
:1014B00001221900FFF73EFB11AA59460198FFF7D8
:1014C00039FA002800D0D8E6129A1398511C5646D3
:1014D000F5E511AA59460198FFF72CFA002800D02B
:1014E000CBE6139869E600220121564605E6139BD8
:1014F000D8460093002B00D1C0E611AA59460198A6
:10150000FFF718FABAE6634601351C432B78FFF75C
:10151000D2FA0999049A0B681A60D2175A600B0024
:1015200004330993FFF78FFA380003F005F80590AC
:10153000A0E411AA59460198FFF7FCF9002800D051
:101540009BE6129A1398511C5646D6E5129B0D93B2
:101550005A1C224B9846FFF758FB0593062B01D9DE
:1015600006230593059B1E4F00934B46099336E5D2
:10157000129A0292541C194A9046FFF7EDFB174B42
:101580008C469846FFF792FB0EABDB7903949846A6
:101590004B460993029B059300230293FFF7EAFA57
:1015A000099B1A1D1B680293002B0ADB6B780992BA
:1015B0000D00FFF780FA0EABDF7131E40EAAD77190
:1015C00053E501235B420293F0E70EAAD771F3E4DF
:1015D0000EABDF71A2E40EAAD7715BE4BCC90000B8
:1015E00004CA000010B504001300034A10680A0082
:1015F0002100FFF7EBF910BD0000002070B50600D8
:1016000002201A4CA5440C008989814368468181D7
:10161000616E1991E189C181E16930000791616AC8
:1016200009911AA9009104918021C90002910591A4
:10163000002106916946FFF7C9F9051E05DB6946D9
:10164000300001F087F900280CD16B469B895B06BE
:1016500003D54022A3891343A38128008D23DB00F7
:101660009D4470BD01256D42EFE7C04698FBFFFF2A
:10167000F0B54E46DE4657464546E0B5CB4C0E002B
:10168000A544099303900C23C95E80239B01194252
:1016900005D10B43B381716EC54B0B4073660023BC
:1016A00011780B9308930A93531C0025C14F139193
:1016B0009946002925D008243B68581840780440F2
:1016C00029D0736808240DE0396832688C46137895
:1016D00063445B781C420DD073680132013B0135D5
:1016E00073603260002BEFDC3100039802F074FD70
:1016F0000028E9D04A461178531C139199460029D5
:10170000D9D10A98AF239B009D443CBC9046994692
:10171000A246AB46F0BD252900D02BE200218B4626
:10172000884601318A4652780F3104914946013189
:101730000691782A00D990E39F48910041588F463E
:101740005A4601231A4393469C4B0B930A23089352
:10175000073B9A467368002B6DDD5B465B0620D421
:10176000082339683268994601E001323260484600
:101770001378CB185B78184213D073680135013B9E
:101780007360002BF1DC3100039802F025FD002886
:1017900057D14846326839681378CB185B781842BD
:1017A000EBD15346022B00D1DFE200DCADE1534622
:1017B000032B00D103E2042B00D0A7E2039801F031
:1017C0009BFE0368AE220E9343460021013B52006C
:1017D0001091934200D924E3F0235A46DB001A43C8
:1017E000002304930F93119307930D9356AB9B46DD
:1017F0000C93734B924699462A00230045465C465B
:1018000090469B46326811780B002B3BDBB24E2B87
:1018100000D961E148469B00C3589F465A460123C0
:101820001A439346674B0B9308230893053B9A464C
:101830007368002B91DC3100039802F0CDFC002886
:101840008BD00A9B002B03D0B3895B0600D458E7EA
:1018500001235B420A9354E7049B5B44002B13D1A2
:101860005046594B184082462170013401239C4652
:101870007368013D013BE0447360002B00DC3CE1F8
:1018800001323260002DBDD15B464546A3461C00A7
:10189000079B002B00D09AE2049B013B012B01D84F
:1018A00000F0FAFD631E062B1ED8022C01D800F0B2
:1018B000D1FD032C18D0043CE3B2DC435C449846D1
:1018C00023005C46AB461D00B146039E013C2178D7
:1018D0004A46300005F09AFCA542F7D15D464346E2
:1018E000A3464E46013DED1A5346DB051BD5534634
:1018F0005B0501D500F0BFFD5B465C1E21786B1EC9
:101900009846652909D0452907D03200039805F08B
:101910007DFCAB1E9846013C21783200039805F00F
:1019200075FC4546A346524610231340069A91463D
:1019300000D0DFE65A461370C0235246DB00134046
:101940008022D200934201D100F004FD119B002BB4
:1019500001D000F047FC00220C99039802F01EFE13
:10196000534604900591DB0701D500F0FDFC53467A
:101970009B0701D500F02CFC04980599099B1A1DC2
:1019800090461C6802000B000AF068FD002801D098
:1019900000F093FD049805990AF02EFE434620605E
:1019A00009930A9B01330A93DEE0C04644FDFFFF22
:1019B000FFDFFFFF300400200CCA0000C554000008
:1019C000F0CB00002D5800007FFEFFFF5346DB05E3
:1019D00000D441E7802351469943079B8A4601334F
:1019E0000793109B002B00D140E7013B109301357A
:1019F0003CE780235046034200D145E798438246A6
:101A000032E75B46072B01D000F0DDFC08239B4644
:101A10002AE75B46062B01D000F0D5FC07239B4646
:101A200022E7049B002B00D0B8E0079B002B00D1DD
:101A3000E2E15B46012B02D0042B00D024E75B4699
:101A40000133DBB29B460FE75B46002B00D0ACE0D6
:101A5000079B002B00D0B6E1E0235046DB00184086
:101A6000984201D100F065FC5B464546A3461C0048
:101A700012E75B46022B01D000F0A5FC03239B4636
:101A8000F2E6A0235046DB0003408020C0008342E2
:101A900006D05346034200D1F6E6079B002BE3D065
:101AA000802053468000034204D1079B0D980F9479
:101AB0001B1A11935046C84B18400300C020400029
:101AC0001843002382460793CEE6049B012B00D0E7
:101AD000DAE602230493C7E60E9B1B788B4200D004
:101AE000D2E6802053468000034200D1CCE6BB48BA
:101AF00003409A46079B0D93B6E63100039802F027
:101B00006BFB002800D1BDE6BEE6012B00D0FDE056
:101B10004346002B01D1013B98465B46DB0600D4CF
:101B2000CDE216AB00249946326849461378CB5C67
:101B3000002B15D073680132013B013473603260B1
:101B4000A04510D0002BF0DC3100039802F044FBDC
:101B5000002808D1494632681378CB5C002BE9D1C4
:101B6000002C00D1CDE52D19069B99464A46C2E5C9
:101B7000069B99467368002B00DCD1E34A46336824
:101B8000013A11781A78914200D0BAE572680133AF
:101B9000013A7260336001354A46ACE5049B022B82
:101BA00000D046E7032304935EE65B46FD20033B3B
:101BB000034200D068E60433DBB29B4654E643465A
:101BC000AE220021013B52008946934200D921E117
:101BD000D8235A461B011A4300239A4656AB934614
:101BE0000C931A002B004446150098463268117871
:101BF0000B002B3BDBB24D2B21D879489B00C358FF
:101C00009F46C0235846DB0003408020800083426B
:101C100015D15846734B18400300A020C00018434C
:101C200010238346089373682970013B0135736064
:101C3000002B5DDD01323260013C002CD6D15B46C9
:101C40002A00A9464546DB0508D50C9B9A4200D9D7
:101C500077E34A460C9B9A4200D152E510235A463C
:101C6000134000D197E14A460C9BD41A54447AE7BA
:101C7000089B0A2BE3DD58465B4B18408346D2E7AE
:101C8000089B5A485B001B5E0893082BF3DCD6E7E1
:101C9000089B56485B001B5E58460893524B184001
:101CA0008346C0E75B461B05BDD5089B002B07D1CB
:101CB000802358469B0018438346F93BFF3B08931B
:101CC0005B465B0500D530E25946494B19404B460F
:101CD0008B46002B04D001235B429C460134E14437
:101CE00001239C467368E244013B7360002BA1DC36
:101CF0003100039802F070FA00289DD09FE78023FE
:101D0000584603429BD0984383468CE74346002BBA
:101D100001D1013398465B46DB0700D566E15B469F
:101D2000DB0600D4A4E20024039BA9462500444618
:101D300098460CE03268ED189446E41A6344336028
:101D40003100404602F048FA002800D08AE2736869
:101D5000A342EFDBA04642462C009B1A7360336817
:101D60004D46434444443360FDE64346002B01D1D5
:101D7000013B984601245B461C4000D0E1E05B46F5
:101D8000DB0600D48BE2082399463968326848465E
:101D90001378CB185B78184200D0E4E67368013200
:101DA000013B013473603260A04500D1DBE6002BBB
:101DB000EDDC3100039802F00FFA002800D0D2E6E3
:101DC00039683268E3E75B464546A3461C00524645
:101DD000084B1A4092465FE57FF8FFFF7FFDFFFF4B
:101DE0002CCD0000FFFDFFFF7FF4FFFF64CE00005D
:101DF0007FFCFFFFFFFEFFFFE0235046DB001840A3
:101E0000984200D015E65046CA4B1840012382463E
:101E1000049329E5C84B434499465E23FF33984613
:101E2000D6E65D3BFF3B10935E23FF339846D3E439
:101E3000C24B0B930023089303339A468AE45A4615
:101E400002210A43069993464A46894649465278F2
:101E500001310691782A00D86EE49B185A78032342
:101E60001340012B00D06FE45A461A4393466BE4AB
:101E700004239A466EE441468900414449008A1889
:101E800030214942884690444A460699527889460C
:101E90004CE45A460499D4E75A460421D1E7069BFC
:101EA00099465B46DB0600D524E45B465B0700D51C
:101EB00096E25B46DB0700D579E25B469B0700D4E0
:101EC00075E20999EA170B685A601D600B0004332C
:101ED00009934A46FFF70FFC4A4652786C2A00D114
:101EE0005BE25946504601438B46069989461DE4FC
:101EF00040235A461A43002393469A462AE416ABD7
:101F00001800069902F008FA40235A461A433F3B4C
:101F1000069093469A461DE480235A469B001A4336
:101F2000874B93460B93102308930D3B9A4611E47D
:101F3000834BFFF70AFC02239A46FFF70BFC88232A
:101F4000EBE714AB0822180000210493FEF788FC8D
:101F500010235A461A4013AB93469A46002A00D1E2
:101F600073E100231C005346AA461D003A683368FB
:101F7000944608221B7863445B781A4200D1E3E060
:101F80002B0055469A465B46002B00D0ECE55346A5
:101F90005A461A6005E54A460C9913700398089B47
:101FA00000220B9CA0475B469B0600D533E15B46B5
:101FB0005B0700D524E25B46DB0700D52BE15B46DF
:101FC0009B0700D427E15E4B0B9A9A4200D110E2A6
:101FD000089B00220C99039803F03CFB099A1368B4
:101FE000186059601300043309931AE114AB0822F6
:101FF000180000210493FEF733FC10235A461A40C0
:10200000079200D115E100239B464346002B00D1E7
:10201000AAE5039B0024A9469A4614E0079B002BDF
:1020200000D018E15A461360013B9C46A944E044A5
:1020300004239C460024E3447368002B33DD4346AD
:10204000002B00D1C4E101F049FAA04201D1FFF711
:10205000F8FB8C20336840001A7810A909180A553B
:10206000013372683360049B013A651C7260594603
:10207000009356AA2B00504601F076FD431C01D177
:10208000FFF7DFFB0028C9D02C00831CD4D001232C
:102090005B429C46079BA944E0440024002BC7D028
:1020A0007368002BCBDC3100504602F095F8002815
:1020B000C5D04D46002C00D18BE1FFF7C2FB099B38
:1020C00044461A1D1B68013C9B4604925C441A005E
:1020D00016ABA84625001C0033681978615C0029FE
:1020E00014D0716801397160511C8A46591C3160E5
:1020F0001B781370AA4200D13EE17368002B08DD03
:10210000336852461978615C0029EAD14546924607
:1021100033E13100039802F05FF80028F0D0454623
:10212000D34500D029E1FFF78CFB5846054B1840FA
:10213000834678E57FF8FFFFA3FEFFFFC55400004C
:102140002D5800007FFAFFFF4346002B00D117E710
:1021500001F0C4F9844201D1FFF773FB8C20631CAA
:102160009946336840001A7810A909180A550133B6
:1021700072683360049B013A72602900009356AA8A
:102180004B46039801F0F0FC431C01D1FFF759FBCB
:10219000002800D03BE1286001F06CF9041E00D15A
:1021A0004BE12B004C4655469A46002C00D1EAE6FE
:1021B000A846039D8C2210AB5200013C9B18195D70
:1021C0003200280005F022F8002CF3D14546DAE66B
:1021D000099A04980599136818605960131D0993AA
:1021E000FFF7DFFB0F9B0022591C03980A2303F023
:1021F00069F9119BC21A10A98C46B44B0F9963441C
:10220000994202D3B24B63440F93B2490F9802F044
:10221000DDF8FFF7A0FB099A136818601300043378
:1022200009934A460A9B01330A930C9BD41A5444DF
:1022300099E4099A130012680433934642460993BD
:10224000002A00D0E5E6FFF7ACFB099B1A680433CF
:102250009246099385E601235B429C46A944E044EB
:102260000024E9E62C1E4D4600D07CE4FFF7E9FA95
:10227000099B012219681C1D00964346039800F033
:1022800027FD002801D1FFF7DCFA0A9B2D18013346
:102290000A93069B099499464A46FFF72CFA099B34
:1022A0001A1D1B6804929B461A0001235B429C4640
:1022B000E044D84409339A464346A8461D0038688E
:1022C0003168844650460B7863445B78184277D176
:1022D0007368541C013B73604B1C33600B78A14640
:1022E000137095420AD07368002B01DD2200E6E7E7
:1022F0003100039801F070FF0028F7D045464A46A8
:10230000002313704B465A469B1AED180A9B013363
:102310000A93049B0993069B99464A46FFF7EBF9FB
:102320003100039801F058FF002800D126E4FFF7A0
:1023300088FA5046684B1840012382469B46FFF7B7
:1023400093FA1400013C21783200039804F05EFFF8
:10235000A1467EE4079B0D9A9A1A01D1FFF7FBFA7A
:102360005B4652420F9346E7099A1368186059601A
:10237000131D0993FFF715FB454653465A469C1A11
:1023800001D1FFF7BEF90023524613700A9B0133B7
:102390000A93049B0993FFF7E6FB5A4602210A437E
:1023A00093468C464A46E1449278FFF7BFF9099A72
:1023B00013681D601300043309934A46FFF79BF925
:1023C000454691469BE7A34645461C00FFF760FA49
:1023D0004D46079B002B01D1FFF7E3FAFFF7C4FB43
:1023E000099B1A6804330692158009934A46FFF741
:1023F00082F9089B00220C99039803F0EDFAEDE5B1
:10240000099B1A68043304921080099309E74C462B
:10241000831C1DD17368002B00DDA7E531000398F4
:1024200001F0DAFE002800D1A0E52B0055469A46BF
:10243000002C01D0FFF705FAA5E501235B429C467D
:102440005B46CA44E044002BE4D104355C46E1E736
:102450002868A1E60C9B5C469B4501D8FFF751F923
:10246000013C21783200039804F0D0FE0C9B9C4282
:10247000F6D1FFF746F90C9B9B4501D8FFF741F9D0
:102480005C46013C21783200039804F0BFFE0C9BAF
:102490009C42F6D1FFF735F90C9B9B4501D8FFF71D
:1024A00030F95C46013C21783200039804F0AEFE1E
:1024B0000C9B9C42F6D1FFF724F9002001F062FF4B
:1024C000434620600993FFF76CFAC0466B02000098
:1024D0006A02000088CE00007FF8FFFFF8B50A4BC3
:1024E00005001C680E001700002C05D0A36B002B04
:1024F00002D1200000F046FB3B0032002900200002
:10250000FFF7B6F8F8BDC0460000002010B5040083
:102510001300034A10680A002100FFF7A9F810BD54
:1025200000000020F8B504000D0016001F00002870
:1025300004D0836B002B01D100F024FB3B00320060
:1025400029002000FFF794F8F8BDC046334B70B562
:10255000050018680C00002802D0836B002B3CD0CB
:102560000C23E25E93B219070DD52169002915D01D
:10257000DA0721D50023A360636900205B42A361D1
:10258000002921D070BDD9063FD55B0728D4216929
:1025900008231343A3819BB20029E9D1A022802004
:1025A000920080001A408242E2D02100280000F010
:1025B000EBFFA3892169DBE700229B0700D4626956
:1025C000A26000200029DDD10C22A35E1A06D9D515
:1025D00040221343A3810138D4E700F0D3FABFE7C8
:1025E000216B00290AD023004033994204D02800EF
:1025F00000F098FC0C23E25E0023236324239A431B
:102600000023216963602160C2E709232B60402316
:1026100001201A43A2814042B4E7C04600000020D6
:10262000F8B5DE469B46314B45461C68A4234E4612
:1026300057465B00E0B50500E0580E0090460028C4
:102640004BD043681F2B0DDC5C1C002D21D10233C5
:102650009B0044601E5000203CBC90469946A24618
:10266000AB46F8BD224B002B3CD0C820400000E018
:1026700000BF002836D0A42200235200A158436096
:102680000160A05040328350043283500124002D59
:10269000DDD09A0091468144424688214F467A50C7
:1026A000C4225200904680444246873999401268BD
:1026B0008A460A439446424661461160842249464E
:1026C0005F4652008F50022DC1D1020055468D3217
:1026D000FF3211680D431560B9E720004D30FF301F
:1026E000E050AEE701204042B6E7C04650C80000C7
:1026F00000000000F0B55746DE464E464546E0B5C0
:102700000F00384B85B01B68019002934933FF33AB
:102710000393A422029B52009E58002E4ED0039B8E
:102720009946C4235B00984604339A467468B044C3
:10273000A5007519B244013C08D52DE06B1DFF338F
:102740001B689F4204D0043D013C25D3002FF5D1E6
:1027500073686A68013BA34239D000236B60002A8A
:10276000F1D0736841469B460123A3400968194292
:102770002BD05146096819422BD12B00843319689C
:102780000198904773685B45C3D14B461B68B342C1
:10279000BFD1043D013CD9D2134B002B0ED073683E
:1027A000002B1BD13368002B08D04A463000136041
:1027B00000E000BF4B461E68002EB2D105B03CBC05
:1027C00090469946A246AB46F0BD9047DAE7746062
:1027D000C5E72B00843318689047D3E7B1463668C5
:1027E000EAE7C04650C8000000000000034B10B5E7
:1027F000002B02D00248FDF7BDFF10BD0000000015
:10280000A5070000F0B5C64600B50C23CA5E804699
:1028100093B20C00190740D480231B011343626854
:10282000A381002A00DC70E0A66A002E31D0424667
:102830004146156800229BB20A60DA0400D469E0C0
:10284000226D5B0706D56368D21A236B002B01D07B
:10285000E36BD21A0023E1694046B047431C3DD0E8
:10286000A3893A4A13400022626022691BB2A38105
:102870002260DB0447D44346216B1D60002908D049
:1028800023004033994202D0404600F04BFB002326
:102890002363002004BC9046F0BD2669002EF8D0CA
:1028A00022682660951B00229B0700D16269A26006
:1028B000002D04DCEDE736182D1A002DE9DD2B0084
:1028C0003200E1694046676AB8470028F3DC4022DD
:1028D0000120A38940421343A381DBE743461968E3
:1028E0001D29F4D81A4B0122CB409A43EFD1A3897A
:1028F000164E6260334022691BB2A3812260DB0462
:10290000B9D50029B7D12065B5E7E26B002A00DD13
:102910008AE7BEE700220123E1694046B047020092
:10292000431C02D0A389A66A8BE743461B68002B91
:10293000F8D01D2B01D0162B03D1434600201D607B
:10294000A8E74021A3890B43A381A3E7FFF7FFFF7B
:102950000100402070B504000D00002802D0836BF8
:10296000002B09D00C22AB5E0020002B03D02900E5
:102970002000FFF747FF70BD00F004F9F2E7C04602
:1029800010B5011E04D0054B1868FFF7E3FF10BD1A
:10299000034B0449186800F047FDF8E700000020E9
:1029A00050C80000552900000020704710B50249AA
:1029B00000F03AFD10BDC04605860000F8B5DE46C1
:1029C00057464E464546344BE0B5C363B823002412
:1029D00003229B00C45004334568C2500833C21818
:1029E000043BC2500600042328002C606C60AC60DD
:1029F000AB816C66EC812C616C61AC6108220021BA
:102A00005C30FDF72DFF254B254F9A462B62254B59
:102A1000EF6299466B62244BED61AB62B5689846F4
:102A200009232800AB81083B2C606C60AC606C66AD
:102A3000EB812C616C61AC61082200215C309B460B
:102A4000FDF70EFF53462B624B466B624346EF6227
:102A5000AB62ED61F56812232800AB81103BEB817E
:102A60002C606C60AC606C662C616C61AC6108229F
:102A700000215C30FDF7F4FE53462B624B466B623F
:102A80004346AB625B46EF62ED61B3633CBC90468C
:102A90009946A246AB46F8BDAD290000114400009E
:102AA000A54400003D440000794400000020704728
:102AB00070B568244A1E54430E002100743100F0A2
:102AC000A7FD051E09D000232200036046600C30DC
:102AD000A86068320021FDF7C3FE280070BDC04623
:102AE000214B70B51D680600AB6B002B2DD0B823B1
:102AF0009B009C4665446B68AC68013B03D51FE0B6
:102B00006834013B1CD30C21625E002AF8D10123FA
:102B1000002520005B42E3810233A38165662560C6
:102B2000A560656025616561A561082200215C30B2
:102B3000FDF796FE256365636564A564200070BD9E
:102B40002868002805D00500D5E72800FFF736FFE4
:102B5000CDE704213000FFF7ABFF28600028F2D159
:102B60000C2300243360E9E750C8000010B5034B84
:102B70000349186800F058FC10BDC04650C800005A
:102B800005860000836B10B5002B01D1FFF716FFFF
:102B900010BDC0467047C0467047C0467047C0462B
:102BA0007047C04610B5034B0349186800F01AFC83
:102BB00010BDC04600000020AD2A000010B5034B38
:102BC0000349186800F00EFC10BDC046000000204C
:102BD000A9290000F0B5CE46474680B585B08046AD
:102BE0008946140000F07AFC012831D0230003AF9D
:102BF0005C334A463900404604F0EEFB0600431CB5
:102C000021D0002830D03978002507E023685A1CED
:102C1000226019700135B54226D2795DA368013B67
:102C2000A360002BF2DAA269934201DB0A29EDD1FD
:102C30002200404604F066FB431CEBD105B00CBCFF
:102C400090469946F0BD4022A3891343A381F5E73E
:102C50004B46013BFE2BC9D86A464B46D371D1790E
:102C600003AF39700126CFE74846E7E710B50C23DC
:102C7000D45E80239B011C4204D11C439481546E7A
:102C800023435366FFF7A6FF10BDC0460F4B70B538
:102C90001D6806000C00002D02D0AB6B002B10D07D
:102CA0000C23E25E80239B011A4204D11A43A281C5
:102CB000626E13436366310028002200FFF78AFF2B
:102CC00070BD2800FFF75EFFEAE7C0460000002065
:102CD000F0B557469A464546DE464E4613009346A3
:102CE0005246E0B5534383B006000D000C9C984655
:102CF000002B3FD0002803D0836B002B00D19CE039
:102D00000C23E15E80238AB29B011A4206D10B4359
:102D1000534A616EA3810A4062669AB26768002FC7
:102D200037DB3B00920739D4A946330045464E466F
:102D3000994610E0216830003A0000F0EBFF23686C
:102D40002100DB1923604846F619ED1B01F044FA17
:102D5000002817D16768BD42ECD82A0021683000EE
:102D600000F0D8FF63685B1B636023689C46654482
:102D70002560D046404603B03CBC90469946A246EA
:102D8000AB46F0BD43465946581B07F0B1FB8046A1
:102D9000F0E70023002763609207C5D54246009202
:102DA000984500D90093009F21683A00280000F060
:102DB000B1FFBC4621686144894621606168CB1B34
:102DC0004146CF1B216B6360002941D0002FD0D03A
:102DD00023004033994204D0300000F0A3F8236868
:102DE000994600232363009B41469C462369626900
:102DF000984653466544B24600914E46019391462B
:102E000001E0002F28D02561676125602100504630
:102E100001F0E2F9434623614B4663616368266033
:102E2000FF1AED18002363600028EAD0009B594682
:102E3000D81B07F05DFB80469CE7FFF7A3FE0C2341
:102E4000E15E80238AB29B011A4200D066E75EE70A
:102E5000002FC8D1D0468DE7019B9A46D04689E71E
:102E6000FFDFFFFF10B50400054882B00068009343
:102E700013000A002100FFF72BFF02B010BDC0466F
:102E800000000020F8B50C00060000F0D5FF204F30
:102E9000BB685D6803239D431E4B2C1B9C4664440A
:102EA000240B1D4B013C24039C4207DD0021300014
:102EB00001F020FABB685B19984204D0300000F0A2
:102EC000BDFF0020F8BD6142300001F013FA431C41
:102ED0000DD00122BB682D1B15435D600F4B3000E8
:102EE0001A68141B1C6000F0A9FF0120EAE700210A
:102EF000300001F0FFF9BA68831A0F2BDEDD0849B4
:102F00000968401A0549086001210B435360D5E761
:102F1000B0040020EF0F0000FF0F0000F8080020B1
:102F2000B8080020F8B504000D1E3CD000F084FF66
:102F30002900083948680123050003269D434A19E2
:102F40009C46614F5368B343BE68B24256D0664652
:102F5000536006420AD13E0008680836091A2D1847
:102F60008868B04265D0CE68C660B0600120D618CF
:102F70007668064233D0554B284348604D519D42F8
:102F800012D8ED08FF3BAA10FF3B93407A68ED0092
:102F900013437B60EF19BB68CF608B60B960D96069
:102FA000200000F04BFFF8BD680A042850D8A8099B
:102FB000020039303832C0003818083883680326D8
:102FC00098424CD05A68B243954230D29B6898429E
:102FD000F8D1C368CB6088609960C160E0E7ED1804
:102FE0003B4E9368B34242D0D2682843DA60936084
:102FF000364B48604D519D42D6D8C2E76246EB1829
:10300000024206D10A68891A88689B18CA68C26099
:10301000906001221A434A602E4AB96012689342B6
:10302000BED32D4B20001968FFF72CFFB8E718001E
:10303000CFE76646D018406830423FD190685D19AE
:10304000D368C360986063462B434B604D51A7E73C
:10305000142814D802005C305B32C000ACE70123B6
:10306000921093407A6813437B600300B2E72843D1
:10307000D9609960CB608B6048604D5190E75428CF
:1030800005D8280B02006F306E32C00094E7AA22E8
:103090005200904205D8E80B020078307732C00029
:1030A0008AE70E4A904205D8A80C02007D307C3297
:1030B000C00081E7FE207E2280007DE763462B432F
:1030C0004B6015606CE7C046B0040020FF010000B3
:1030D000B8040020BC080020F408002054050000BB
:1030E000F0B54E46DE4657464546E0B5936883B098
:1030F00000900C001600002B25D08B891A072AD5CA
:103100000A69002A27D0326893469A072FD5B24B16
:10311000002700259846B146002D00D172E02B0013
:10312000454500D9AC4B3A00E1690098666AB04762
:10313000002800DC73E04B469B683F182D1A181AD4
:103140004B469860E8D1002003B03CBC90469946BD
:10315000A246AB46F0BD21000098FFF7F7F9002822
:1031600000D030E13268A38993469A07CFD4DA07BA
:103170005DD5002300209A4600271D00B14629E0B6
:10318000002833D0A846BD4200D9B846206822693D
:1031900046466369904207D9A26894469C446246B9
:1031A0000192E04500DDE9E0984500DA8FE0666ACB
:1031B0005246E1690098B047061E30DDAD1B012084
:1031C000002D26D04B469B68B244BF1B9E1B4B462E
:1031D0009E60B8D0002FD3D15B461B689A465B46F1
:1031E0005F6808239C46E344002FF5D03A000A218B
:1031F000504600F04FFD002800D1E2E05346013078
:10320000C51ABFE75B461F685D6808239C46E34418
:1032100082E721000098FFF79DFB0028D2D00C2206
:10322000A35E402201201343A38140428CE7002289
:1032300091464D46002D23D0A268904680229200F0
:10324000134226D0C24645454DD39022D2001342A8
:103250004ED12F0020685246494600F09DFD42465F
:10326000A368981A2368A06053442360B368B944E4
:10327000ED1BDF1BB76000D165E7A389002DDBD113
:103280005A46126891465A46556808229446E344C5
:10329000D0E720682369984202D86769BD4259D2B5
:1032A0004746AF4200D92F003A00494600F074FD6E
:1032B000A3682268DB1BD219A3602260002BD5D142
:1032C00021000098FFF746FB0028CFD0A7E7424631
:1032D000514600F061FD4246A3689B1AA360236833
:1032E000434423606AE7A84620682F00AA46B2E755
:1032F00021692268521A924662695700BF18FA0F74
:10330000D7195246501C7F1040193A00B84201D9D3
:10331000070002005B0542D51100009800F078F923
:103320008046031E52D05246216900F0F3FCA38967
:103330002A4A134080221343A38143464046236117
:10334000534650446761FF1AA7602060A8462F00CB
:10335000AA4680E7224B28009D4200D91800390078
:1033600007F050F93B004A464343E1690098676A19
:10337000B847002800DC52E7070077E76646514669
:1033800000F00AFDB44623682100634423600098DE
:10339000FFF7E0FA002800D041E7019E0EE7009811
:1033A00000F04EFD80460028C7D1009D216928000D
:1033B000FFF7B8FD8022A3899343743A1BB22A60B9
:1033C0002FE77D1CDEE601204042BDE6009A0C336B
:1033D00013600C22A35E24E700FCFF7F7FFBFFFF4E
:1033E000FFFFFF7FB823F0B5C6469B00C71800B5A6
:1033F00088460026002F13D07B68BC685D1E0CD465
:10340000A389012B06D90E22A35E013302D020002E
:10341000C04706436834013DF2D23F68002FEBD12C
:10342000300004BC9046F0BDF8B54746CE4680B5A6
:10343000B8278046BF00474489460026002F14D095
:103440007B68BC685D1E0DD4A389012B07D90E22B1
:10345000A35E013303D021004046C84706436834C9
:10346000013DF1D23F68002FEAD130000CBC9046FC
:103470009946F8BD03000020FF2B05D8034A1068C9
:10348000C31808205B7818407047C04630040020FD
:1034900070B5151E16D00C49100001F009F80B4C40
:1034A000002801D1200070BD2100280001F000F8A3
:1034B0000028F7D00649280000F0FAFF0028F1D0D4
:1034C0000020F0E7014CEDE794CF000054C8000065
:1034D000ECC900000048704734040020014B186A12
:1034E0007047C04634040020014824307047C0466D
:1034F0003404002000207047014844307047C04623
:103500003404002010B5044B0A001B6801001800A9
:10351000FFF7BEFF10BDC046000000200148443048
:103520007047C0463404002070B50C001E000E2306
:10353000C95E90B01500002915DB01AA05F0B2F8AC
:10354000002810DBF022029B120213400D4A80205B
:10355000944663445A42534133608023DB002B601E
:10356000000110B070BD00233360A3891B0603D592
:10357000402300202B60F4E78023DB002B60002039
:10358000EFE7C04600E0FFFF70B58B8982B0050011
:103590000C009B0707D523004333236023610123DD
:1035A000636102B070BD01AB6A46FFF7BDFF0099D1
:1035B0000600280000F02CF800281CD08022134BB5
:1035C000EB63A38920601343009A1BB26261019AE6
:1035D000A3812061002A02D13343A381E1E70E23B6
:1035E000E15E280005F044FC00280CD00122A389EC
:1035F00013431BB2F0E70C22A35E9A05D1D402223A
:103600001343A381C7E70C22A35EE5E7AD290000C1
:10361000F0B557464546DE464E46E0B50D000B3543
:1036200083B00700162D00D89FE007239D4300D5E7
:10363000C4E0A94200D9C1E000F0FEFBF823FF334B
:103640009D4200D889E2680A00D1BBE0042800D975
:1036500064E138239846A80980443930C100C94E36
:1036600071180839CC68A14219D0032362689A43C3
:103670001300521B0F2A00DDAAE0002A00DB88E0BD
:1036800003239C4608E06246636893435A1B0F2A53
:1036900000DD9DE0002A7CDAE468A142F3D132002B
:1036A00034690832944200D18BE103236168994365
:1036B0008946491B0F2900DD70E1726132610029E2
:1036C00000DB87E0B04A4B46914500D932E1DB0888
:1036D000FF3A9910FF3A8A40DB0071689B190A4350
:1036E00099687260E360A1609C601300CC60012166
:1036F0008210914099426FD80B4205D1032290432A
:10370000490004300B42FBD003239846C30099467E
:10371000B144CC4682466346DC68A44507D152E1F9
:10372000002A00DB61E1E468A44500D14BE1424698
:10373000636893435A1B0F2AF2DD0120804661190A
:1037400005436560A068E5680836C560A860404626
:10375000F160B16010434860CE608E603800E25086
:1037600000F06CFB2000083021E0102926D838003A
:1037700000F062FB102518230220824EF3181A0075
:103780005C68083A944200D129E1032362689A43B5
:103790001300E268A168CA6091600122E3185968C9
:1037A00038000A435A6000F049FB2000083003B09B
:1037B0003CBC90469946A246AB46F0BD0C23002087
:1037C0003B60F4E780213F2340208900984646E78C
:1037D000404664E74B46E0E70323B46862689A43D7
:1037E0009046AA4203D3531B0F2B00DD88E0230031
:1037F0004344664A0193664B93469A4692681B6817
:10380000EB18013200D161E1624A944663441B0B1C
:103810001B0300930099380000F06CFD0300814603
:10382000013362D0019B834200D9F9E053465B68C3
:10383000009A9C46534662445A60019B11008342A1
:1038400000D14FE15B469B68013300D166E14B46F6
:10385000019A9B1A59185346596007234A46134048
:1038600000D11EE1082189464B49D21A9144CB1A56
:10387000009A38004A441105090D5B1A19009B464D
:1038800000F038FD431C00D13CE14B46C01A012337
:103890005844184353465B685B44190053465960CB
:1038A0004B46B3605860B44213D043460F2B00D848
:1038B000E2E04346072260680C3B9343063A02402D
:1038C00005201A436260E218506090600F2B00D907
:1038D0001CE15346DB6A994201D95346D9625346EB
:1038E0001B6B994201D9534619630323B46862687C
:1038F0009A43531B954200D9C1E00F2B00DCBEE078
:103900000122290013431143651961603800B56035
:103910006B6000F093FA2000083048E7142873D950
:10392000542800D9B2E06E239846280B80446F30AB
:10393000C10094E65A0A042A6CD9142A00D9C8E0B6
:1039400011005C325B31D20008235B429C46B21806
:10395000944463469A6803239846944500D1A3E0B3
:10396000434651689943894500D38DE09268944558
:10397000F6D16346DA6873686146E260A1609460DC
:10398000CC60B4E6B0040020FF010000B0080020C5
:10399000F40800200F100000081000000123601937
:1039A0001D43656070613061C26082601A004B46E1
:1039B0000A4342603800E15000F040FA200008302D
:1039C000F5E6736893E608239B46073BDC449B4679
:1039D000DA4443465246134200D09CE636E0DC68A7
:1039E0000230A34200D15AE6CFE60122E31859681B
:1039F00038000A435A60E368A268D3609A6000F016
:103A00001DFA20000830D2E65B23984680445C30E3
:103A1000C10024E69A09110039323831D20093E707
:103A2000B44200D061E753465B68009A9C46534617
:103A3000624411005A6005E708235B429C46E1445A
:103A40004B469B680138994500D084E043460342C9
:103A5000F2D173688B4373604900994200D9BBE689
:103A6000002900D1B8E650460B4200D04EE649008E
:103A700004300B42FBD049E601234A46536038002C
:103A800000F0DCF9002092E6944672E7AA235B007E
:103A9000984211D8DD3B9846E80B80447830C1004D
:103AA000DDE580235B01E3E68910023B8B40726811
:103AB0001343736062465FE72A4B98421CD87C230D
:103AC0009846A80C80447D30C100C8E510330093AF
:103AD000A0E6542A26D84B461A0B11006F326E31DD
:103AE000D20031E71B0500D0ACE60120009BB26894
:103AF000434403435360ECE6FE217E237F2089008C
:103B00009846ACE5002301209B46C3E6210038001F
:103B10000831FFF707FA53465968DAE65B464A462A
:103B20009A609AE6AA2149008A4206D84B46DA0BE7
:103B3000110078327731D20006E70A498A4206D866
:103B40004B469A0C11007D327C31D200FCE6FE22FD
:103B50007E219200F8E673687EE72B00E8080833C0
:103B60000BE6C04654050000F0B5C64600B51F0080
:103B700082B005000E00141E124B16D01B6898462A
:103B8000FFF7A8FC089B0090019322003B00310046
:103B90002800C047431C04D10023089A13608A33CD
:103BA0002B6002B004BC9046F0BD1C68FFF792FC8D
:103BB000089B00900193044A012300212800A0479C
:103BC000E8E7C046C0080020ECC90000F0B5474651
:103BD000CE4680B51E00144B83B01D6807000C1E36
:103BE0009046124B15D01B689946FFF773FC01965F
:103BF00000904346220039002800C847431C03D1E7
:103C0000002333608A332B6003B00CBC9046994686
:103C1000F0BD1C68FFF75EFC019600900123044A8A
:103C200000212800A047E9E700000020C00800208C
:103C3000ECC9000082B000290AD0002A0BD0002B6A
:103C40000BD013780B601078431E984102B0704778
:103C500001A9002AF3D10020F8E702204042F5E74D
:103C6000F0B5C64600B59846094B82B01C68050001
:103C70000E001700FFF72EFC089B009001933A00FE
:103C8000434631002800A04702B004BC9046F0BD76
:103C9000C008002070B5CDB2830734D0541E002A6E
:103CA0001BD00378AB4219D0032204E0013C14D3AB
:103CB0000378AB4212D001301042F7D1032C0ED85A
:103CC000002C0AD00378AB4208D0041902E0037834
:103CD000AB4203D001308442F9D1002070BDFF22F5
:103CE0000B061B0C114019430B04084E19430368C3
:103CF000074A4B409A189A433242E3D1043C0430BD
:103D0000032CF4D8DCE71400D8E7C046808080801C
:103D1000FFFEFEFEF0B505000F2A2FD90B0003436E
:103D20009B0734D116000C000300103E3509013505
:103D30002D01451927681F6067685F60A7689F604D
:103D4000E7681034DF6010339D42F3D10F239E43A8
:103D50001036851989191340032B1AD91E1F002309
:103D6000B4080134A400CF58EF500433A342FAD171
:103D70000324A643331D2240C918ED18002A05D09C
:103D80000023CC5CEC5401339342FAD1F0BD050022
:103D9000F6E71A00F2E7C046F0B588420AD98B1858
:103DA000984207D2531E002A03D0CA5CC254013B7A
:103DB000FBD2F0BD05000F2A08D8002AF9D0002355
:103DC000CC5CEC5401339342FAD1F2E70B0003438D
:103DD0009B072DD115000C000300103D2F09013762
:103DE0003F01C71926681E6066685E60A6689E600F
:103DF000E6681034DE6010339F42F3D10F24A543F0
:103E00001035491914404519032C13D90023271FD5
:103E1000BE080136B600CC58EC500433B342FAD198
:103E20000326B7433C1D09192D193240C7D1C0E7FD
:103E30000500C4E72200C0E77047C0467047C0468F
:103E4000F0B54E464546DE465746E0B585B0019092
:103E50000E001500002900D19EE037000198083FB0
:103E6000FFF7EAFF7A68032314009C432B000B330F
:103E7000B946162B47D8102110238846454546D809
:103E80009C4249DACC4938198B46896802908842AD
:103E900000D1C2E001218A464068010003905046EB
:103EA00081438C4602998B46DC4461464968014255
:103EB0004DD0104200D1A2E029000198FFF7A8FBE5
:103EC000051E39D0012302007968083A99437F180A
:103ED000BA4200D12EE1221F242A00D914E1132A6C
:103EE00000D9E8E003003200116819605168596098
:103EF00092689A60019C31002000FFF713F82000BF
:103F0000FFF79CFF1BE007218B439846B6D50C2397
:103F1000019A0025136012E035004346E31A0F2B87
:103F200025D84B46012249465B68134023434B602A
:103F30004C4463681A4362600198FFF77FFF2800D2
:103F400005B03CBC90469946A246AB46F0BD032165
:103F500003988C46884321188B46994221DB029AAC
:103F60003500D36892685C46D3609A60D5E74A46CC
:103F70000120464652684946024032434E4641447B
:103F8000034372604C444B606368083118436060BF
:103F90000198FEF7C7FFCFE71100FFF739FB0500D7
:103FA000CDE75146114200D086E761463A68BA1A19
:103FB000924652688A4380188346A3449B4526DB79
:103FC000029AD3689268D3609A6053465246554627
:103FD0009268DB680835D3609A60221F242A00D9D2
:103FE00096E0132A72D95346316899607168D96096
:103FF0001B2A00D9A4E032001033083268E03A6886
:10400000BA1A924651460322496891430A009346E0
:10401000A3449B4500DA4FE7D7E703200299844683
:10402000496881434046091910300290814258DAAC
:10403000D20700D540E760463A68BA1A92465268FD
:1040400082430298511803918842E0DC534652465D
:1040500055469268DB680835D3609A60221F242A8F
:1040600000D98EE0132A00D888E053463168996061
:104070007168D9601B2A00D988E0320010330832F9
:10408000116819605168596092689A6051465B46A0
:10409000424641449960039B01989A1A01231A43AE
:1040A0004A60524652681340424613435246536098
:1040B000FFF7C4FE43E733680360736843601B2A5D
:1040C0002DD803003200083308320DE72B003200F0
:1040D00011685C4619605168D146596092689A60CF
:1040E0001BE74346FA185B469A604346C91A012308
:1040F000194351607A6801981340424613437B602C
:10410000FFF79CFE35001AE73100FFF745FEF1E6A8
:1041100031002800FFF740FE5C46D146FDE6B3685B
:104120008360F368C360242A15D003003200103383
:104130001032D9E6536803229343E4183500ECE6C5
:104140005346B1681961F1685961242A0CD03200D4
:1041500018331032BCE73369320003610300716920
:10416000183318324161BFE65346326951469A61AD
:104170003200706920331832C861A9E72B00320081
:104180007EE731002800FFF707FE7FE75346B1685E
:104190001961F1685961242A03D0320018331032B2
:1041A0006EE75346326951469A6132007069203396
:1041B0001832C86164E7C046B0040020092310B576
:1041C000828913400022092B01D0100010BDFEF798
:1041D000D7FB0200F9E7C046F8B505000C0000283F
:1041E00002D0836B002B4CD080210C22A35E89016E
:1041F0009AB20A4206D10B433B4A616EA3810A4040
:1042000062669AB200216160910637D4510725D5C4
:10421000216B00290CD023004033994202D02800A2
:10422000FEF780FE00232363E36B6360002B42D123
:104230002369002B4FD00C23E75EBEB2B30723D116
:1042400023692800236022696369E169256AA84718
:10425000030060600020002B09DDF8BDD1063FD5CA
:10426000082616422BD104221343A381E0E7002B3A
:104270001BD0A389606040221343A38101204042E8
:10428000EBE7FEF77FFCAFE70123A381174B18494B
:104290001868FFF7A7F80923A7811E40092ECFD180
:1042A00021002800FEF7AEFACAE72022A3890138D0
:1042B0001343A381D1E7A36B00202360CDE7210046
:1042C0002800FEF747FB0028D8D1A389A060B3439C
:1042D0001BB2A061C7E721002800FFF755F9AAE744
:1042E00009222A60C7E7C046FFDFFFFF50C8000071
:1042F000BD410000002370B5064C05000800236096
:1043000008F04EFA431C00D070BD2368002BFBD090
:104310002B60F9E72C09002070B50C785E2C28D0B2
:104320004E1C002500210300421CFF32197001338E
:104330009A42FBD1711E002C0ED001236B40035515
:104340003278711C2D2A09D05D2A05D0002A02D0AE
:1043500014000E00F3E73100080070BD72785D2A8A
:104360000CD094420ADC023601340355A242FBDC35
:10437000E6E78E1C4C7801250121D4E72D240E00A0
:10438000DDE7C046004870470000C07F0CB430B580
:104390009DB0029106910C4982250491079101215B
:1043A00020AB04CB02AC4942E181AD002100019376
:1043B000A58101F001FC0023029A13701DB030BCEE
:1043C00008BC02B01847C046FFFFFF7F0EB410B50F
:1043D0009DB002A9029008610B4882248860486160
:1043E000012040421FABC881084804CBA4000068EC
:1043F00001938C8101F0E0FB0023029A13701DB041
:1044000010BC08BC03B01847FFFFFF7F000000206E
:1044100070B50C000E25495F05F018FA002803DB83
:10442000236D1B18236570BDA389024A1340A38125
:10443000F9E7C046FFEFFFFF00207047F8B5160010
:104440001F000C228B5E05000C00DA0507D50E2339
:10445000C95E0022022304F01DFD0C22A35E054A62
:1044600028001340A38132000E23E15E3B0003F0DD
:1044700035F8F8BDFFEFFFFF70B50C000E25495F62
:1044800004F008FD431C06D08023A2895B0113437E
:10449000A381206570BDA389014A1340A381F9E778
:1044A000FFEFFFFF10B50E23C95E03F02BF810BD20
:1044B000024670B50A4392072AD11E4DEE0104C888
:1044C00008C9541B9443344017D0D0B2D9B2401A13
:1044D0002106014310D190B299B2401A2104014340
:1044E0000AD110021902000A090A401A21020143E6
:1044F00002D1100E190E401A70BD9A42DFD010BAC8
:1045000019BA884201D9012070BD0020C04370BD96
:1045100002780B7801300131002A09D09A4207D184
:1045200002780B7801300131002A01D09A42EFD095
:10453000D01A70BD0101010110B5830725D00378A1
:10454000002B24D00300032102E01A78002A1AD09D
:1045500001330B42F9D119680E4A0F4C8A188A436D
:10456000224206D1043319680A4A8A188A43224231
:10457000F8D01A001B78002B03D0013211780029E3
:10458000FBD1101A10BD181AFCE70300E3E7002066
:10459000F8E7C046FFFEFEFE80808080F0B5DE4674
:1045A00057464E4645460023E0B59FB01A93039206
:1045B000002300240A00199104930594137883467C
:1045C0008A46B2482D2B00D986E0990041588F4683
:1045D0000F00804614005846FEF78EFF03685846C9
:1045E0000793FEF789FF0068FFF7A6FF079902000F
:1045F000280005F03FF9002800D121E10023002226
:1046000000259C4607962023210099430023452935
:1046100000D17FE00799002900D0D6E0089B1A431B
:1046200000D00AE16346002B00D120E3039B002663
:104630000027002B07D0002253460692039A1360EE
:10464000069B002B08D1300039001FB03CBC9046BF
:104650009946A246AB46F0BD802109067B181F0093
:10466000F1E700230693531C199399465378002BC6
:10467000DCD000220892302B35D01A00303A092ABB
:1046800001D900F078FC0022002710004D460026DA
:1046900039001A000EE08F007F187F00BF18390024
:1046A0003039013519952A7801361300303B092B32
:1046B00000D98DE7082EEEDD83001B185B009B18E8
:1046C000303B1800EDE701230693CCE70132199245
:1046D00013782D2B00D878E791460022069200220D
:1046E0000892302BC9D14B465B78582B00D158E348
:1046F000782B00D155E34A460132110019920B780C
:104700000132302BF9D08946002B00D195E00122EF
:104710000892B2E7079B089913430B4300D185E742
:10472000199B9A460133199353465C782B2C00D180
:104730009FE32D2C00D1C8E2002309932300303BD6
:10474000092B00D91DE3302C06D1199B0133199395
:104750001C780133302CFAD021003139002308298C
:1047600000D957E719992300481C19904C780B91F0
:104770000A90080021003039303B092915D8010082
:104780006046944602310C909A00D31819915B0050
:104790001B190C780A0020003038303B0131092801
:1047A000F2D90C990A9262468C460A990B98091A1A
:1047B000082900DD99E236498B4200DD95E209992E
:1047C000002900D126E75B4224E75B1B0893002EFB
:1047D00000D1079E079A9246102A01DD10239A46BF
:1047E000380007F0D1FE534604900591092B15DDE2
:1047F0005246284B093AD2009B181A685B6807F0AA
:1048000097F8040040460D0007F0BEFE02000B00C2
:104810002000290006F048F904900591079B0F2B12
:104820003ADC089B002B00D03CE2049E059F039BD2
:10483000002B00D104E7199B00E700260027F6E7CC
:104840005846FEF759FE0068FFF776FE199B9C4616
:10485000604419900478002E00D0F3E1302C01D090
:1048600000F09AFC431C19931C781A1A0133302C5F
:10487000F9D02300313B082B01D800F017FC0023AE
:104880000793013300259C46BDE6C046A0CF00003B
:104890001F4E000088D300005246079B9C1A089BBD
:1048A0009C466444002C00DC1BE30F2323400AD009
:1048B000D849DB00C91808684968049A059B07F0C5
:1048C00037F8049005910F239C434FD09A235B0047
:1048D0009C4200DD01E22411012C01DC00F0FBFC14
:1048E0000498059900229046013292464246CA4BEE
:1048F000B04609931D00160000235246224204D000
:104900002A686B6807F014F8012301366410083533
:10491000012CF2D1320046469046002B01D000F027
:1049200076FDBE4A059B9446634405934346D900F1
:10493000099B9C46049A059B61440868496806F0F7
:10494000F7FF0A000300140004930594B44B1340CE
:10495000B44A934200D9C0E1B34A934201D800F06F
:1049600099FCB24B059301235B4204930023099306
:104970000097079B32004946584604F017FB8046D3
:10498000002800D1A9E108994B42CA171A40CB432D
:104990000B920A00DB171A4000230A929A469946A6
:1049A000F8E0C91A521A1F2900DDBBE101238B4030
:1049B0000D9300230E93AB1819000893099BA418BC
:1049C0009C462B0064448D4200DD0B00A34200DDB9
:1049D0002300002B04DD089AE41AD21A0892ED1A7B
:1049E0000B9B002B17D049461A00584604F024FCB4
:1049F0008146002800D1F1E101001A9A584604F0DE
:104A000071FB0C90002800D1E8E11A99584604F097
:104A10007DFA0C9B1A93089B002B08DD089A1A99C3
:104A2000584604F069FC1A90002800D1D7E10A9B8F
:104A3000002B08D00A9A0799584604F0FDFB07900E
:104A4000002800D1CAE1002C08DD22000799584651
:104A500004F052FC0790002800D1BFE1002D08DDD2
:104A600049462A00584604F047FC8146002800D1F8
:104A7000B4E1079A1A99584604F0B8FC8246002817
:104A800000D1ABE1C368494608930023C36004F03A
:104A900093FC002800DAC4E300D180E34946504685
:104AA00004F030FE80230022DB0504000D0005F039
:104AB000B5FE002800D11AE1089B002B00D139E196
:104AC000059B00240C9300230E93594B584D0F93D4
:104AD000534A0C9B13401A000D93564B9A4200D137
:104AE0009BE1099B002B2AD0D4230D9ADB049A4228
:104AF00025D8514A514B0E980F9905F08FFE00288A
:104B000018D00E980F9905F0F1FE002800D105E3AA
:104B100007F03AFD0E900F91089B002B00D0F8E2B1
:104B20008022120694460E9B14930F9B63441593A8
:104B3000149C159DD6230D9ADB04EB189D1A3000AA
:104B4000390004F0EFFC02000B002000290006F001
:104B5000EFFE3B00320005F0A7FF03000C000493BA
:104B60000594099B002B05D12D4B0D9A23409A42A9
:104B700000D181E11A99584604F0C8F907995846BE
:104B800004F0C4F94946584604F0C0F95146584665
:104B900004F0BCF943465846596804F08FF9079071
:104BA000002800D11AE14246414612690C31023216
:104BB00092000C30FFF7AEF8049E059F1CAB0193EA
:104BC0001BAB009332003B00584604F03DFD1A90A9
:104BD000002800D103E10121584604F079FA81460A
:104BE000002800D1FAE01B9B002B00DA96E00B9A1C
:104BF0000A9CD51809991C9A5B1A36219B188A1AA7
:104C00000F49013B8B4200DACBE600230E930133C0
:104C10000D93D0E688D3000078D400000000B0FCEB
:104C20000000F07F0000A07C0000907CFFFFEF7F81
:104C30000000F03F0000E07F0000C0FFFFFFDF4109
:104C400002FCFFFF002200250796210030390929C8
:104C50000AD8531C0991002900D0F4E11A001998D0
:104C6000431C19934478F0E701239C46CBE44E2C77
:104C700007D000DC57E2692C00D158E26E2C00D03E
:104C8000D4E4CC4919A804F009F8002800D1CDE4F7
:104C9000199B1B78282B00D168E3C74B0593002391
:104CA0000493C2E5089B002B00DC62E2162B00DDBA
:104CB00010E2C249DB00C91808684968049A059BDC
:104CC00006F036FE06000F00B1E5012309935346B6
:104CD0000233199353469C7830E522235A461360D9
:104CE000B74B0593002304939FE5B64B67E5B64B9E
:104CF00000222000290006F01BFE089B0E900F9159
:104D0000002B39D1802212060B0094466344109088
:104D10001193059B109C119D0C93D9E60A9A0B9D4B
:104D2000D41A67E7A949CB1A0121994001230E91B2
:104D30000D9340E60499059A002926D10C9213039D
:104D400028D10022A24B2000290005F05DFD00289B
:104D500000D0A9E200229C4B2000290006F0E8FDCB
:104D6000802212060B00944663440E900F91169019
:104D70001793169C179DABE60E9A0F9B10921193FA
:104D8000C7E753461993002344E4012900D1E4E125
:104D9000059B0C9300230E938D4B00248D4D0F9398
:104DA00096E6069B8C4A01931AAB009319A91BAB9C
:104DB000584603F0E1FC07240500044000D13CE51F
:104DC000062C00D0E4E04B46013319930023002663
:104DD000002706932BE5013300D0EFE21A98222337
:104DE0005A461360764B059300230493049E059F57
:104DF0000100584604F08AF80799584604F086F8EE
:104E00004946584604F082F84146584604F07EF878
:104E10005146584604F07AF809E5704A0C9B9446CE
:104E2000634405931296139726002F00049C059D5A
:104E30002000290004F076FB02000B00300039004E
:104E400006F076FD22002B0005F02EFE5C4B644A36
:104E5000049005910B40934200D894E0614B139A63
:104E60009A4200D110E25F4B059301235B42049309
:104E700080E6002309932AE70E9E0F9D300029004B
:104E800007F00CFB07F03EFB0B000200290030008E
:104E900006F0CEFF089B06000F00002B0FD1049BED
:104EA000002B0CD124030AD14F4A504B05F0ACFC27
:104EB000002800D15EE61A98049E059F98E74A4AAA
:104EC0004B4B3000390005F09FFC0028F3D1494AD4
:104ED0003D4B3000390005F0ABFC002800D149E61D
:104EE000E9E7002C00D141E50F23644223400AD0BA
:104EF00004980599314ADB00D3181A685B6806F0FC
:104F0000E3F804900591241100D12FE51F2C2CDC2F
:104F100010232340099300D10AE26A230993002C4D
:104F200000DCF0E1049805990122002390462A4D07
:104F300028354246224204D02A686B6806F0F8FC05
:104F4000012364100835002CF3D1002B00D05BE264
:104F5000099B002B00D0D6E104980599002200237C
:104F600005F04CFC002800D102E522235A46002619
:104F7000136000275BE41C0000234D469846002781
:104F80000026FFF728FBD4239B04CC180594E8E502
:104F90001A9A002A07D035211CA804F007FC1A9998
:104FA000584603F0B3FF052C2DD8134BA4001B5912
:104FB0009F46C046CCD000000000F8FF88D3000018
:104FC0000000F07F1F4E00000000E03FE2FBFFFF0B
:104FD0000000F03F0000F0BF70D000000000B0FC07
:104FE000FFFF9F7CFFFFEF7F9535A094FFFFCF3F32
:104FF000FFFFDF3F35E5AF3558D00000CE4B0593BE
:1050000001235B4204932B0701D4FFF70EFC80239E
:10501000059A1B061A430592FFF707FCC74B059339
:10502000F1E71C9B04931D9B0593ECE7C4491C9B73
:105030008C460493C34A1D9B1A401B9B63441B056B
:105040001A430592DFE70798ED1884466244012B66
:1050500000D1E0E144468C4688460798390005E0D7
:105060008F0079184900934209D01800431C082882
:10507000F6DD102BF7DCA7003C196400F3E70F0006
:105080006146020009914146A046023219980792F2
:10509000082B17DD079B0022102B00DDE0E54346BF
:1050A0009B00434488465B009844D9E5199B551CF6
:1050B000994630235B429C46A444634609930123EE
:1050C00048460793BB00DF19099B7F009C460022DE
:1050D0006744C5E52523079A08999B1A994201DD83
:1050E000FFF7DAFB0F24984DA41AE1006918049A1F
:1050F000059B0868496806F01BFC089B1C1BE40024
:105100002C192268636806F013FC06000F00FFF7F5
:105110008EFB0E9A0F9B1492159309E500230E93B4
:105120008A4B0F93F8E4492C01D0FFF77FFA8849A6
:1051300019A803F0B3FD002801D1FFF777FA199BF6
:105140008449013B19A8199303F0A8FD002800D059
:10515000C6E5199B01331993C2E5059B0C93002BFF
:1051600000D017E622235A461A981360002600271B
:105170003EE6089A1300163301DAFFF78DFB049818
:105180000599714BD2009B1A1A685B6805F09CFF69
:1051900006000F00FFF74BFB0022FFF76AFB089B9E
:1051A000002B00D189E0049B059C6B49230322005E
:1051B0001B0B8B4200D1EAE00E9B002B00D185E057
:1051C000059A134210D004980599089B099A002B60
:1051D00000D186E000F05EF902000B0030003900DB
:1051E00005F062FC06000F00099B002B17D05B4BFB
:1051F0003000139300231293129A139B390006F088
:1052000097FB03000C0006000F000493059400298F
:1052100005D1049B002B02D122235A4613601A9811
:10522000E6E5089B002BDFD10499059A0029DBD124
:105230001303D9D1414B1340D622D2049342D3D980
:1052400053465B69002B03D153461B69012BCBDD11
:1052500051460122584604F04FF84946824604F070
:10526000ABF80028C0DD099B002B00D1BDE0059AFA
:10527000324B1340D622D204934200DDB5E0DC224B
:1052800092049342B3DC6DE7129B013300D0EAE550
:105290001A98A4E5D422920423009446634405930B
:1052A00000230993FFF764FB00232D4C16931794FA
:1052B00000230E932B4B0F935BE50499059A130380
:1052C00000D079E7002900D076E7CCE70D9B049A5F
:1052D000134289D077E700239846234B0993FFF7C1
:1052E00020FB00F0D7F802000B003000390006F078
:1052F0009FFD0022002306000F0005F07FFA002822
:1053000000D02FE770E7049B059C6B236100490DDB
:1053100022005B1A002B00DC1EE61F2B5EDD002145
:105320000491342B00DC7CE0DC239B04059313E622
:10533000002C00DDF6E50FE6FFFFFF7F0000F07FA9
:1053400033040000FFFFEFFF88D300000000F03FB0
:10535000C0D00000C4D00000FFFF0F000000503993
:105360000000E0BF0000E03F78D4000030491CAAF4
:10537000143119A803F0A8FC052800D08DE41D9B6A
:105380002C4A1A431C9B05920493FFF74EFA099B83
:105390000499002B1FD0D420264BC0042340834205
:1053A00019D86B201B0DC01A01235B4283408B422E
:1053B00000D001E720498A4200D10CE580211D4B35
:1053C00049031A4013008C46634405930023049359
:1053D000049E059F08E701235B42E8E70122524251
:1053E0009A40049B13400493B6E5059A114B134071
:1053F000124A9446124A63441A4301235B420592BF
:105400000493049E059FEFE604900591A0E50490A7
:105410000591FFF786FA62460132199863460792B2
:1054200036E60121203B494299400A40059293E526
:1054300070D000000000F07FFFFFEF7F0000F0FF62
:10544000FFFF0F0010B5044B0A001B680100180095
:10545000FFF7A4F810BDC046000000200C4B70B54B
:105460001B680A0001001800FFF798F802000B0003
:1054700004000D0006F0F2FF002804D120002900EE
:1054800007F0BAF870BD0020FEF77CFFFAE7C046CF
:105490000000002070B516000D0004F043F8002E47
:1054A0000DD06B236A00520D9B1A002B07DD0024E0
:1054B000034A1B059D182B00220006F039FA70BD27
:1054C0000000F03FF0B545464E46DE465746E0B593
:1054D0001E00584B87B004911D6805900B00904644
:1054E000082100E03B001C785F1C2A195278114209
:1054F000F8D12D2C00D16EE0002201922B2C00D18E
:1055000079E0002E04D0102E00D177E0009605E05F
:10551000302C00D17FE00A230A260093464A019BE3
:105520009446009A63449146110018009A460393EA
:1055300005F064F84B46029150464946009304F04A
:10554000D7FF042281469246013A9346009A0023EF
:1055500000204946944600960EE0009A303CA24254
:105560001BDD5A1C06D088422FD82BD063465843E7
:10557000012320183C78013756462A1952781642E2
:10558000EBD15E46324008D05726B146012A1FD0E3
:105590004A46A41A009AA242E3DC5A1C20D0019A7F
:1055A000002A00D040424246002A04D0049A002B30
:1055B0001FD143461A6007B03CBC90469946A246AC
:1055C000AB46F0BD029B9C42D0DD01235B42D1E79C
:1055D00036329146DCE73C789F1C0123019390E72B
:1055E0002222059B1A604346002B20D07A1E039886
:1055F000DFE70390FAE73C789F1C82E7302C13D159
:1056000020223B789343582B0ED110237C780093B3
:105610000237102682E720223B789343582BF4D0A0
:1056200008230826009379E71023009376E7039870
:10563000C1E7C04630040020FFFFFF7F10B5040023
:105640001300034A10680A002100FFF73BFF10BD5A
:1056500000000020F0B54E464546DE465746E0B510
:105660009846704B8DB00A911E680B900B00059206
:10567000082100E02B001C785D1C32195278114281
:10568000F8D12D2C00D194E0002206922B2C00D1D1
:10569000A1E04346002B0ED0102B00D19EE00393D7
:1056A000DB170493069B002B11D101235B42079368
:1056B0005D4B089310E0302C00D19FE00A23039348
:1056C000002304930A339846069B002BEDD0002359
:1056D000079380231B060893039B0799089F9B460B
:1056E0001A00049B8946080039009A4605F0B4F870
:1056F0005346099248465A46390005F0ADF804234E
:105700009946013B82460F000022002000219B4663
:10571000029619E0303CA04527DD531C12D0B94257
:1057200041D801D150453ED8504537D0039A049B0B
:1057300005F0B2F8E31700940193009B019C01224D
:10574000C01861412C7801354E46029B1B195B78CD
:105750001E42DFD15E46334007D05726B446012BA8
:1057600024D06346E41AA045D7DC531C26D0069B00
:10577000002B04D003000C0000215842A141059BDE
:10578000002B04D00A9B002A22D1059A13600DB089
:105790003CBC90469946A246AB46F0BDB942C5D145
:1057A000099B9C42C2DD01225242CBE736339C4624
:1057B000D7E72C789D1C012306936AE722230B9AD6
:1057C0001360059B002B2AD06B1E07980899DCE715
:1057D00007900891F8E72C789D1C5AE7302C19D1D6
:1057E00020222B789343582B14D1102303930023AA
:1057F000049310336C789846023565E720222B78A5
:105800009343582BF1D008230393002304930833C8
:10581000984659E7102303930023049354E707980D
:105820000899B4E730040020FFFFFF7FF0B54E4633
:105830004546DE465746E0B51E005D4B87B00491F5
:105840001D6805900B009146082100E003001C78BC
:10585000581C2A1952781142F8D182462D2C00D1B9
:1058600075E0002203922B2C00D176E0002E10D0A0
:10587000102E00D175E001203100404204F038FEC6
:10588000070001203100404204F0B8FEB04602910A
:1058900008E0302C00D178E00523029305339846C8
:1058A0000A26444F00229446043253469246013A57
:1058B00000209346614601960EE0019A303CA242D8
:1058C0001BDD002933DBB84231D82DD042460121FF
:1058D000504320181C78013356462A195278164234
:1058E000EBD15E46324008D05726B446012A21D07B
:1058F0006246A41A019AA242E3DC8C4600291CDB12
:10590000039A002A00D040424A46002A05D0614648
:10591000049A002919D14B461A6007B03CBC904646
:105920009946A246AB46F0BD029A9442CEDD0121D3
:105930004942CFE736329446DAE722220599012020
:105940000A604A464042002AE7D05A1EE3E7023383
:105950009A4601230478039388E7023304789A4631
:1059600084E7302C1ED1534620221B789343582BBA
:1059700018D153465C7802239C460D3302930133C1
:10598000E2440D4F984610268CE7534620221B78A0
:105990009343582BEDD0072302930133074F9846CA
:1059A00008267FE70F2302930133034F984679E7D8
:1059B0003004002099999919FFFFFF0FFFFFFF1F87
:1059C00010B504001300034A10680A002100FFF715
:1059D0002DFF10BD00000020F0B557464E46DE46B4
:1059E0004546E0B51F006F4B8BB008911E680990CB
:1059F0000B000592082100E02B001C785D1C321979
:105A000052781142F8D12D2C00D192E00022079259
:105A10002B2C00D192E0002F17D0102F00D190E056
:105A2000FB173A0001204042C1170493994603979F
:105A300004F012FF3A00824688464B46012040425D
:105A4000C11704F009FF06920DE0302C00D18DE063
:105A500005230693544B0A279A46544B98460A232B
:105A600003930023049304239946013B9B4643463A
:105A70000296002200200021B8461E0019E0303CAA
:105A8000A04527DD002A43DBB14241D801D1504572
:105A90003ED8504537D0039A049B04F0FDFEE3172F
:105AA00000940193009B019C0122C01861412C7855
:105AB00001354F46029B1B195B781F42DFD15F46C1
:105AC0003B4007D05727BC46012B24D06346E41A3D
:105AD000A045D7DC002A21DB079B002B04D0030064
